S0150000666F756E646174696F6E5F56322E73726563F1
S113000071C0000099C00000D2C000008BC0000085
S113001089C0000087C0000085C0000083C00000C4
S113002081C000007FC000007DC000007BC00000D4
S113003079C0000077C0000075C0000073C00000E4
S113004071C00000EFC000006DC000006BC0000074
S113005069C0000003C2000065C0000063C0000066
S113006061C000005FC000005DC000005BC0000014
S113007059C0000057C0000055C0000053C0000024
S113008051C000004FC000004DC000004BC0000034
S113009049C0000047C0000045C0000043C0000044
S11300A041C000003FC000003DC000003BC0000054
S11300B039C0000037C0000035C0000033C0000064
S11300C031C000002FC000002DC000002BC0000074
S11300D029C0000027C0000025C0000023C0000084
S11300E021C0000011241FBECFEFD1E2DEBFCDBF7F
S11300F000E00CBF12E0A0E0B2E0E2EFF4E100E0C7
S11301000BBF02C007900D92AE31B107D9F722E0C0
S1130110AEE1B2E001C01D92A736B207E1F7FFD409
S11301200C94770A6DCF9093890080938800709324
S11301308B0060938A0008951F920F920FB60F925E
S113014011248F939F93AF93BF934F9B14C08091BF
S11301504C0290914D02A0914E02B0914F02019732
S1130160A109B10980934C0290934D02A0934E02D1
S1130170B0934F0213C080914C0290914D02A09114
S11301804E02B0914F020196A11DB11D80934C0205
S113019090934D02A0934E02B0934F02BF91AF9142
S11301A09F918F910F900FBE0F901F9018951F92E3
S11301B00F920FB60F9211248F939F93AF93BF9317
S11301C04E9B14C08091480290914902A0914A022A
S11301D0B0914B020197A109B10980934802909311
S11301E04902A0934A02B0934B0213C08091480283
S11301F090914902A0914A02B0914B020196A11D2F
S1130200B11D8093480290934902A0934A02B0938F
S11302104B02BF91AF919F918F910F900FBE0F90A2
S11302201F9018951F920F920FB60F9211240BB6C0
S11302300F928F929F92AF92BF92CF92DF92EF92E2
S1130240FF922F933F934F935F936F937F938F937B
S11302509F93AF93BF93EF93FF9360914C02709180
S11302604D0280914E0290914F02C0902C02D0908A
S11302702D02E0902E02F0902F02CBD7A701960119
S1130280C4D694D74B015C01609148027091490235
S113029080914A0290914B02C0902802D09029028A
S11302A0E0902A02F0902B02B4D7A7019601ADD6B4
S11302B07DD76B017C0160914C0270914D0280915D
S11302C04E0290914F02A5D760932C0270932D0299
S11302D080932E0290932F026091480270914902FC
S11302E080914A0290914B0294D7609328027093B4
S11302F0290280932A0290932B02B401990C880B53
S1130300990B87D72DEC3CEC4CEC5DE3E7D64B0125
S11303105C01B601DD0C880B990B7BD72DEC3CEC12
S11303204CEC5DE3DBD66B017C0120E030E84CE271
S113033054E4C501B401D2D69B01AC0167D627E8C9
S113034036E149E450E40E94BD092FE832EC45EF60
S11303505CE30E94BD094B015C016093440270930D
S11303604502809346029093470220E030E84CE235
S113037054E4C701B601B2D69B01AC0147D627E8C5
S113038036E149E450E4F9D72FE832EC45EF5CE379
S1130390F4D76B017C016093400270934102809317
S11303A042029093430220913402309135024091ED
S11303B0360250913702C501B40127D62DEC3CEC2E
S11303C04CEC5DE38BD660933C0270933D028093CA
S11303D03E0290933F0220913002309131024091CD
S11303E0320250913302C701B6010FD62DEC3CEC1A
S11303F04CEC5DE373D660933802709339028093BA
S11304003A0290933B028092340290923502A09279
S11304103602B0923702C0923002D0923102E0929A
S11304203202F0923302FF91EF91BF91AF919F910D
S11304308F917F916F915F914F913F912F91FF9099
S1130440EF90DF90CF90BF90AF909F908F900F90E0
S11304500BBE0F900FBE0F901F9018951F920F9216
S11304600FB60F9211248F939F93AF93BF938091F4
S11304701E0290911F02A0912002B09121020196C8
S1130480A11DB11D80931E0290931F02A093200210
S1130490B0932102BF91AF919F918F910F900FBEA6
S11304A00F901F901895E1E8F0E0808188608083C8
S11304B0AFE6B0E08C9182608C9387EA91E69093EA
S11304C089008093880080818360808384B5826002
S11304D084BD89EF87BDEEE6F0E080818260808391
S11304E085B5836085BD0895F89460911E0270916E
S11304F01F02809120029091210278940895CF9256
S1130500DF92EF92FF920F931F93CF93DF93EC014F
S1130510EBDF6B017C01E8DFDC01CB018C199D0969
S1130520AE09BF098E0120E030E080179107A207D1
S1130530B30788F3DF91CF911F910F91FF90EF9054
S1130540DF90CF900895CF92DF92EF92FF92CF93F6
S1130550DF93282F30E0A8ECB0E08ED72AE530E016
S113056040E050E06DD769017A0110924C0210927C
S11305704D0210924E0210924F02109248021092B5
S1130580490210924A0210924B02C0E0D0E019C016
S11305902296BE010D2E000C880B990B3AD622E54B
S11305A037E743E459E3E5D6181614F4C0E0D0E085
S11305B0662777276C1B7D0BCE01B5DD82E390E0C7
S11305C09EDFBE010D2E000C880B990B22D622E56E
S11305D037E743E459E37ED58823D4F2D701C60133
S11305E09927AA27BB2740914C0250914D02609154
S11305F04E0270914F02481759076A077B07DCF4D3
S1130600409148025091490260914A0270914B0214
S1130610481759076A077B070CF30DC0229712F499
S1130620C0E0D0E0662777276C1B7D0BCE017BDD15
S113063082E390E064DF1C161D0684F360E070E042
S113064080E090E070DDDF91CF91FF90EF90DF903C
S1130650CF900895CF92DF92EF92FF920F931F9362
S1130660CF93DF93EC0140DF9B01AC01A8EEB3E034
S113067012D76B017C0138DF9B01AC01A8EEB3E01B
S11306800AD7DC01CB018C199D09AE09BF098E0183
S113069020E030E080179107A207B30760F3DF91F1
S11306A0CF911F910F91FF90EF90DF90CF9008951D
S11306B0CF9323B130E0082E02C0359527950A94D4
S11306C0E2F720FD0FC0C82F82E390E018DF83B16A
S11306D090E002C095958795CA95E2F780FD04C025
S11306E081E003C080E001C080E0CF9108958F7065
S11306F0806480937C0087EC80937A0080917A00F8
S113070086FDFCCF8091780090917900089586173A
S1130710970734F0481759072CF4842F952F089520
S1130720862F972F08950F931F9340E050E0BA014E
S11307300EC08A019B010F5F1F4F2F4F3F4F403464
S113074052446F40710509F45AC0B901A80129B196
S1130750E82F30E0082E02C0359527950A94E2F779
S113076020FFE7CF0DC0DB01CA010196A11DB11D19
S1130770403452446F40710509F446C0AC01BD01D8
S113078089B190E00E2E02C0959587950A94E2F700
S113079080FDE9CF0CC0DB01CA010196A11DB11D8A
S11307A0403452446F407105A1F1AC01BD0189B1DF
S11307B090E00E2E02C0959587950A94E2F780FF8B
S11307C0EACF40E050E0BA010BC04F5F5F4F6F4F7C
S11307D07F4F403482E458078FE068077105F1F0D9
S11307E089B190E00E2E02C0959587950A94E2F7A0
S11307F080FDEBCF342F252F862F972F13C030E0A9
S113080020E080E090E00EC030E020E080E090E066
S113081009C030E020E080E090E004C030E020E057
S113082080E090E0632F722F1F910F9108951F9322
S1130830CF93DF93162F9BB1C1E0D0E002C0CC0F61
S1130840DD1F8A95E2F7DC2FD0959D239BB982E0CA
S113085090E000DF8BB1C82BCBB98AE090E0FADEE0
S11308608BB1D823DBB961E0812F5DDF992324F4B8
S11308706F5F7F4F8F4F9F4F9595879577956795BE
S1130880C8D42DEC3CEC48EE51E428D48FD4DF914D
S1130890CF911F910895CF92DF92EF92FF9266E07D
S11308A085E0C5DF40910202C42ED12CE12CF12C4D
S11308B021E06C157D058E059F050CF020E0822F4C
S11308C0FF90EF90DF90CF900895CF93DF93CDB753
S11308D0DEB72A970FB6F894DEBF0FBECDBF9AE0FD
S11308E0EFE0F2E0DE01119601900D929A95E1F7A6
S11308F0E1E0F0E0EC0FFD1FE80FF11D808180FFC7
S113090004C09BB19E7F9BB903C09BB191609BB90E
S113091081FF04C09BB19D7F9BB903C09BB19260D2
S11309209BB982FF04C09BB19B7F9BB903C09BB161
S113093094609BB983FF04C09BB1977F9BB903C0AC
S11309409BB198609BB984FF04C09BB19F7E9BB907
S113095003C09BB190619BB985FF04C09BB19F7D8F
S11309609BB903C09BB190629BB986FF04C08BB155
S11309708F7B8BB903C08BB180648BB92A960FB679
S1130980F894DEBF0FBECDBFDF91CF9108954F9293
S11309905F926F927F928F929F92AF92BF92CF920B
S11309A0DF92EF92FF92CF93DF9300D01F92CDB7E7
S11309B0DEB7682F70E080E090E029D46B017C0101
S11309C0609363027093640280936502909366025D
S11309D020915B0230915C0240915D0250915E0275
S11309E015D32B013C0160935B0270935C028093EE
S11309F05D0290935E0220915F023091600240910B
S1130A00610250916202C701B601FFD24B015C0141
S1130A1060935702709358028093590290935A023C
S1130A2020910B0230910C0240910D0250910E0264
S1130A30C701B601A2D469837A838B839C832091F6
S1130A400702309108024091090250910A02C30141
S1130A50B20193D49B01AC0169817A818B819C8121
S1130A60D5D22B013C012091030230910402409124
S1130A70050250910602C501B4017FD49B01AC016B
S1130A80C301B201C3D24B015C0160935302709362
S1130A9054028093550290935602C0925F02D09202
S1130AA06002E0926102F09262029B01AC0162E694
S1130AB07EEB8CEB98E3A9D279D36B017C0122E61F
S1130AC03EEB4CEB58E3C501B401A0D26FD34B010C
S1130AD05C0140E050E060E070E0C60118DE7C019B
S1130AE040E050E060E070E0C40111DEBC01C701E9
S1130AF01ADB8AE090E003DD0F900F900F900F90C7
S1130B00DF91CF91FF90EF90DF90CF90BF90AF90A7
S1130B109F908F907F906F905F904F9008950F9368
S1130B201F93CF93DF9317B884B1866084B981EAA9
S1130B30809380008AE0809381008AB183738AB9AC
S1130B408BB18C6C8BB985E08093690083E08DBB9D
S1130B508AB180628AB98AB18F7B8AB984B18C7771
S1130B6084B985B1836985B98AB18F678AB9789464
S1130B709ADC80E09DDD882381F0809152028430EC
S1130B8040F4809152028F5F80935202809152020E
S1130B909CDE80E08DDD8111FCCF81E089DD88233E
S1130BA081F080915202882341F080915202815059
S1130BB0809352028091520288DE81E079DD8111B6
S1130BC0FCCF87E075DD882351F081E080935002EB
S1130BD082E08093010287E06BDD8111FCCF80917C
S1130BE05002813009F007C280910002823079F40A
S1130BF084E05EDD8823E1F383E08093000282E0F9
S1130C008093010284E054DD8111FCCFF1CF833065
S1130C1009F04AC009C0EC2FF0E0E75EFD4F808187
S1130C2066DDCF5F80E002C0C0E081E0C53098F3AC
S1130C30813051F559DC0091220210912302209158
S1130C40240230912502DC01CB01801B910BA20B05
S1130C50B30B893E9340A105B10570F08091510218
S1130C6081508093510240DC6093220270932302EE
S1130C70809324029093250280912602909127026A
S1130C800A9714F01092010280915102811109C057
S1130C9084EB59DC81E080930002109250021092A0
S1130CA0520280E074DE65CF80910102823009F047
S1130CB054C0609144027091450280914602909123
S1130CC0470222E537E743E459E304D2882394F446
S1130CD060913C0270913D0280913E0290913F02EE
S1130CE02DE33AE047E550E4F5D1882334F4C0E03D
S1130CF0D1E005C0C1E0D0E002C0C0E0DFEF609108
S1130D00400270914102809142029091430222E597
S1130D1037E743E459E3DED188238CF46091380249
S1130D207091390280913A0290913B022DE33AE0AE
S1130D3047E550E4CFD188232CF461E004C0C1E03E
S1130D4060E001C06FEF70E08D2F90E0ECD9C1300E
S1130D5021F481E08093010251C18091010281114B
S1130D604EC0609144027091450280914602909178
S1130D70470220E030E0A901FCD21816A4F4D1E027
S1130D8028E431EE42EB50EC60913C0270913D025C
S1130D9080913E0290913F02ECD218160CF0D0E004
S1130DA0D19510E002C011E0D0E060914002709152
S1130DB04102809142029091430220E030E0A90177
S1130DC0D8D21816A4F4C1E028E431EE42EB50EC7A
S1130DD0609138027091390280913A0290913B02FD
S1130DE0C8D218160CF0C0E06C2F619502C011E057
S1130DF060E070E08D2F90E096D9113019F0C0E0DA
S1130E0001E00CC081E080930102F8C0EC2FF0E017
S1130E10E75EFD4F80816BDCCF5F00E0C530B0F34F
S1130E203ADD813009F05CC0609144027091450262
S1130E30809146029091470220E030E0A90199D2C6
S1130E401816A4F4D1E028E431EE42EB50EC6091A2
S1130E503C0270913D0280913E0290913F0289D202
S1130E6018160CF0D0E0D19510E002C011E0D0E0EB
S1130E70609140027091410280914202909143023C
S1130E8020E030E0A90175D21816A4F4C1E028E4EA
S1130E9031EE42EB50EC609138027091390280914E
S1130EA03A0290913B0265D218160CF0C0E06C2F08
S1130EB0619502C011E060E070E08D2F90E033D9BD
S1130EC0113009F0B1CF81E08093010203C084E6C0
S1130ED090E015DBE0DC8130D1F382E08093010205
S1130EE0013051F501DB009122021091230220917F
S1130EF0240230912502DC01CB01801B910BA20B53
S1130F00B30B893E9340A105B10570F08091510265
S1130F108F5F80935102E8DA609322027093230278
S1130F2080932402909325028091260290912702B7
S1130F300A9714F01092010290915202809151028A
S1130F40981356C060914402709145028091460204
S1130F509091470220E030E0A9010BD21816A4F4C6
S1130F60D1E028E431EE42EB50EC60913C02709108
S1130F703D0280913E0290913F02FBD118160CF085
S1130F80D0E0D19510E002C011E0D0E060914002C1
S1130F9070914102809142029091430220E030E03E
S1130FA0A901E7D11816A4F4C1E028E431EE42EB1C
S1130FB050EC609138027091390280913A0290911C
S1130FC03B02D7D118160CF0C0E06C2F619502C01B
S1130FD011E060E070E08D2F90E0A5D8113009F0A9
S1130FE0B1CFC1E0C09301028AE5ADDAC09300023B
S1130FF080E0CDDCBECD80E068DCBBCD80E090E05D
S1131000DF91CF911F910F9108955058BB27AA27C4
S11310100ED075C166D130F06BD120F031F49F3F12
S113102011F41EF45BC10EF4E095E7FB51C1E92F06
S113103077D180F3BA17620773078407950718F00E
S113104071F49EF58FC10EF4E0950B2EBA2FA02DEE
S11310500B01B90190010C01CA01A0011124FF2761
S1131060591B99F0593F50F4503E68F11A16F0405C
S1131070A22F232F342F4427585FF3CF469537955B
S11310802795A795F0405395C9F77EF41F16BA0B20
S1131090620B730B840BBAF09150A1F0FF0FBB1FCE
S11310A0661F771F881FC2F70EC0BA0F621F731F17
S11310B0841F48F4879577956795B795F7959E3F74
S11310C008F0B3CF9395880F08F09927EE0F979502
S11310D087950895D9D008F481E008950CD00FC104
S11310E007D140F0FED030F021F45F3F19F0F0C09A
S11310F0511139C1F3C014D198F39923C9F355237D
S1131100B1F3951B550BBB27AA27621773078407F6
S113111038F09F5F5F4F220F331F441FAA1FA9F3AC
S113112033D00E2E3AF0E0E830D091505040E6959E
S1131130001CCAF729D0FE2F27D0660F771F881FFF
S1131140BB1F261737074807AB07B0E809F0BB0BEE
S1131150802DBF01FF2793585F4F2AF09E3F510512
S113116068F0B6C000C15F3FECF3983EDCF38695AF
S113117077956795B795F7959F5FC9F7880F911D88
S11311809695879597F90895E1E0660F771F881F74
S1131190BB1F621773078407BA0720F0621B730B27
S11311A0840BBA0BEE1F88F7E095089504D0689479
S11311B0B111D9C00895BCD088F09F5790F0B92FD1
S11311C09927B751A0F0D1F0660F771F881F991F98
S11311D01AF0BA95C9F712C0B13081F0C3D0B1E0AA
S11311E00895C0C0672F782F8827B85F39F0B93FBA
S11311F0CCF3869577956795B395D9F73EF490959A
S11312008095709561957F4F8F4F9F4F0895E89417
S113121009C097FB3EF490958095709561957F4F3A
S11312208F4F9F4F9923A9F0F92F96E9BB279395E8
S1131230F695879577956795B795F111F8CFFAF4F8
S1131240BB0F11F460FF1BC06F5F7F4F8F4F9F4F29
S113125016C0882311F096E911C0772321F09EE887
S1131260872F762F05C0662371F096E8862F70E0ED
S113127060E02AF09A95660F771F881FDAF7880FC7
S11312809695879597F90895990F0008550FAA0B1D
S1131290E0E8FEEF16161706E807F907C0F0121685
S11312A01306E407F50798F0621B730B840B950B88
S11312B039F40A2661F0232B242B252B21F40895DD
S11312C00A2609F4A140A6958FEF811D811D08957A
S11312D097F99F6780E870E060E008959FEF80ECE5
S11312E0089500240A941616170618060906089588
S11312F000240A9412161306140605060895092EEE
S11313000394000C11F4882352F0BB0F40F4BF2B5C
S113131011F460FF04C06F5F7F4F8F4F9F4F08959C
S113132057FD9058440F551F59F05F3F71F0479592
S1131330880F97FB991F61F09F3F79F08795089577
S1131340121613061406551FF2CF4695F1DF08C096
S1131350161617061806991FF1CF869571056105B3
S113136008940895E894BB2766277727CB0197F95B
S113137008958ADF08F48FEF08950BD0C0CFB1DF52
S113138028F0B6DF18F0952309F0A2CFA7CF1124D7
S1131390EACFC6DFA0F3959FD1F3950F50E0551F18
S11313A0629FF001729FBB27F00DB11D639FAA27B6
S11313B0F00DB11DAA1F649F6627B00DA11D661F05
S11313C0829F2227B00DA11D621F739FB00DA11D26
S11313D0621F839FA00D611D221F749F3327A00DE0
S11313E0611D231F849F600D211D822F762F6A2F7C
S11313F011249F5750408AF0E1F088234AF0EE0F01
S1131400FF1FBB1F661F771F881F91505040A9F70D
S11314109E3F510570F05CCFA6CF5F3FECF3983E42
S1131420DCF3869577956795B795F795E7959F5F74
S1131430C1F7FE2B880F911D9695879597F908950E
S1131440052E97FB16F400940FD057FD05D02DD030
S113145007FC02D046F408C050954095309521957C
S11314603F4F4F4F5F4F08959095809570956195CC
S11314707F4F8F4F9F4F0895A29FB001B39FC0012C
S1131480A39F700D811D1124911DB29F700D811DAC
S11314901124911D0895F0DFA59F900DB49F900D28
S11314A0A49F800D911D11240895A1E21A2EAA1B58
S11314B0BB1BFD010DC0AA1FBB1FEE1FFF1FA21700
S11314C0B307E407F50720F0A21BB30BE40BF50BFD
S11314D0661F771F881F991F1A9469F76095709586
S11314E0809590959B01AC01BD01CF010895F894BE
S10514F0FFCF28
S11314F2010214CDCC4C3D0000803F000030413F3E
S1111502065B4F666D7D077F6F0001020304D8
S9030000FC
